{
  "contractName": "LandRegistry",
  "abi": [
    {
      "anonymous": false,
      "inputs": [
        {
          "indexed": true,
          "internalType": "uint256",
          "name": "landId",
          "type": "uint256"
        },
        {
          "indexed": false,
          "internalType": "string",
          "name": "ownerName",
          "type": "string"
        },
        {
          "indexed": false,
          "internalType": "string",
          "name": "location",
          "type": "string"
        },
        {
          "indexed": false,
          "internalType": "uint256",
          "name": "price",
          "type": "uint256"
        }
      ],
      "name": "LandRegistered",
      "type": "event"
    },
    {
      "anonymous": false,
      "inputs": [
        {
          "indexed": true,
          "internalType": "uint256",
          "name": "landId",
          "type": "uint256"
        },
        {
          "indexed": false,
          "internalType": "string",
          "name": "newOwnerName",
          "type": "string"
        },
        {
          "indexed": false,
          "internalType": "address",
          "name": "newOwnerAddress",
          "type": "address"
        }
      ],
      "name": "OwnershipTransferred",
      "type": "event"
    },
    {
      "inputs": [
        {
          "internalType": "uint256",
          "name": "",
          "type": "uint256"
        }
      ],
      "name": "lands",
      "outputs": [
        {
          "internalType": "uint256",
          "name": "landId",
          "type": "uint256"
        },
        {
          "internalType": "string",
          "name": "ownerName",
          "type": "string"
        },
        {
          "internalType": "address",
          "name": "ownerAddress",
          "type": "address"
        },
        {
          "internalType": "string",
          "name": "location",
          "type": "string"
        },
        {
          "internalType": "uint256",
          "name": "price",
          "type": "uint256"
        },
        {
          "internalType": "bool",
          "name": "exists",
          "type": "bool"
        }
      ],
      "stateMutability": "view",
      "type": "function",
      "constant": true
    },
    {
      "inputs": [
        {
          "internalType": "uint256",
          "name": "_landId",
          "type": "uint256"
        },
        {
          "internalType": "string",
          "name": "_ownerName",
          "type": "string"
        },
        {
          "internalType": "string",
          "name": "_location",
          "type": "string"
        },
        {
          "internalType": "uint256",
          "name": "_price",
          "type": "uint256"
        }
      ],
      "name": "registerLand",
      "outputs": [],
      "stateMutability": "nonpayable",
      "type": "function"
    },
    {
      "inputs": [
        {
          "internalType": "uint256",
          "name": "_landId",
          "type": "uint256"
        },
        {
          "internalType": "string",
          "name": "_newOwnerName",
          "type": "string"
        },
        {
          "internalType": "address",
          "name": "_newOwnerAddress",
          "type": "address"
        }
      ],
      "name": "transferOwnership",
      "outputs": [],
      "stateMutability": "nonpayable",
      "type": "function"
    },
    {
      "inputs": [
        {
          "internalType": "uint256",
          "name": "_landId",
          "type": "uint256"
        }
      ],
      "name": "getLandDetails",
      "outputs": [
        {
          "internalType": "uint256",
          "name": "landId",
          "type": "uint256"
        },
        {
          "internalType": "string",
          "name": "ownerName",
          "type": "string"
        },
        {
          "internalType": "address",
          "name": "ownerAddress",
          "type": "address"
        },
        {
          "internalType": "string",
          "name": "location",
          "type": "string"
        },
        {
          "internalType": "uint256",
          "name": "price",
          "type": "uint256"
        }
      ],
      "stateMutability": "view",
      "type": "function",
      "constant": true
    }
  ],
  "bytecode": "0x608060405234801561001057600080fd5b50610f9a806100206000396000f3fe608060405234801561001057600080fd5b506004361061004c5760003560e01c806343e8349a14610051578063cde6d0f81461006d578063e261f1e514610089578063fe0cb7dc146100be575b600080fd5b61006b600480360381019061006691906109a3565b6100f2565b005b61008760048036038101906100829190610a0a565b6102b4565b005b6100a3600480360381019061009e919061097a565b610469565b6040516100b596959493929190610d1f565b60405180910390f35b6100d860048036038101906100d3919061097a565b6105e2565b6040516100e9959493929190610cbe565b60405180910390f35b60008084815260200190815260200160002060050160009054906101000a900460ff16610154576040517f08c379a000000000000000000000000000000000000000000000000000000000815260040161014b90610c9e565b60405180910390fd5b3373ffffffffffffffffffffffffffffffffffffffff1660008085815260200190815260200160002060020160009054906101000a900473ffffffffffffffffffffffffffffffffffffffff1673ffffffffffffffffffffffffffffffffffffffff16146101f7576040517f08c379a00000000000000000000000000000000000000000000000000000000081526004016101ee90610c7e565b60405180910390fd5b816000808581526020019081526020016000206001019080519060200190610220929190610845565b508060008085815260200190815260200160002060020160006101000a81548173ffffffffffffffffffffffffffffffffffffffff021916908373ffffffffffffffffffffffffffffffffffffffff160217905550827ffbdff706e9c321669fdf7a67af83ccf8124c918dd9664207801b2526190a4e3783836040516102a7929190610be9565b60405180910390a2505050565b60008085815260200190815260200160002060050160009054906101000a900460ff1615610317576040517f08c379a000000000000000000000000000000000000000000000000000000000815260040161030e90610c5e565b60405180910390fd5b6040518060c001604052808581526020018481526020013373ffffffffffffffffffffffffffffffffffffffff16815260200183815260200182815260200160011515815250600080868152602001908152602001600020600082015181600001556020820151816001019080519060200190610395929190610845565b5060408201518160020160006101000a81548173ffffffffffffffffffffffffffffffffffffffff021916908373ffffffffffffffffffffffffffffffffffffffff16021790555060608201518160030190805190602001906103f9929190610845565b506080820151816004015560a08201518160050160006101000a81548160ff021916908315150217905550905050837f892b379b37cd07fe40cab6859a79d8898e1e854252b58ae38596fa21d30b65be84848460405161045b93929190610c19565b60405180910390a250505050565b600060205280600052604060002060009150905080600001549080600101805461049290610e95565b80601f01602080910402602001604051908101604052809291908181526020018280546104be90610e95565b801561050b5780601f106104e05761010080835404028352916020019161050b565b820191906000526020600020905b8154815290600101906020018083116104ee57829003601f168201915b5050505050908060020160009054906101000a900473ffffffffffffffffffffffffffffffffffffffff169080600301805461054690610e95565b80601f016020809104026020016040519081016040528092919081815260200182805461057290610e95565b80156105bf5780601f10610594576101008083540402835291602001916105bf565b820191906000526020600020905b8154815290600101906020018083116105a257829003601f168201915b5050505050908060040154908060050160009054906101000a900460ff16905086565b6000606060006060600080600087815260200190815260200160002060050160009054906101000a900460ff1661064e576040517f08c379a000000000000000000000000000000000000000000000000000000000815260040161064590610c9e565b60405180910390fd5b60008060008881526020019081526020016000206040518060c00160405290816000820154815260200160018201805461068790610e95565b80601f01602080910402602001604051908101604052809291908181526020018280546106b390610e95565b80156107005780601f106106d557610100808354040283529160200191610700565b820191906000526020600020905b8154815290600101906020018083116106e357829003601f168201915b505050505081526020016002820160009054906101000a900473ffffffffffffffffffffffffffffffffffffffff1673ffffffffffffffffffffffffffffffffffffffff1673ffffffffffffffffffffffffffffffffffffffff16815260200160038201805461076f90610e95565b80601f016020809104026020016040519081016040528092919081815260200182805461079b90610e95565b80156107e85780601f106107bd576101008083540402835291602001916107e8565b820191906000526020600020905b8154815290600101906020018083116107cb57829003601f168201915b50505050508152602001600482015481526020016005820160009054906101000a900460ff161515151581525050905080600001518160200151826040015183606001518460800151955095509550955095505091939590929450565b82805461085190610e95565b90600052602060002090601f01602090048101928261087357600085556108ba565b82601f1061088c57805160ff19168380011785556108ba565b828001600101855582156108ba579182015b828111156108b957825182559160200191906001019061089e565b5b5090506108c791906108cb565b5090565b5b808211156108e45760008160009055506001016108cc565b5090565b60006108fb6108f684610dbf565b610d8e565b90508281526020810184848401111561091357600080fd5b61091e848285610e53565b509392505050565b60008135905061093581610f36565b92915050565b600082601f83011261094c57600080fd5b813561095c8482602086016108e8565b91505092915050565b60008135905061097481610f4d565b92915050565b60006020828403121561098c57600080fd5b600061099a84828501610965565b91505092915050565b6000806000606084860312156109b857600080fd5b60006109c686828701610965565b935050602084013567ffffffffffffffff8111156109e357600080fd5b6109ef8682870161093b565b9250506040610a0086828701610926565b9150509250925092565b60008060008060808587031215610a2057600080fd5b6000610a2e87828801610965565b945050602085013567ffffffffffffffff811115610a4b57600080fd5b610a578782880161093b565b935050604085013567ffffffffffffffff811115610a7457600080fd5b610a808782880161093b565b9250506060610a9187828801610965565b91505092959194509250565b610aa681610e0b565b82525050565b610ab581610e1d565b82525050565b6000610ac682610def565b610ad08185610dfa565b9350610ae0818560208601610e62565b610ae981610f25565b840191505092915050565b6000610b01601783610dfa565b91507f4c616e6420616c726561647920726567697374657265640000000000000000006000830152602082019050919050565b6000610b41602583610dfa565b91507f4f6e6c7920746865206f776e65722063616e207472616e73666572206f776e6560008301527f72736869700000000000000000000000000000000000000000000000000000006020830152604082019050919050565b6000610ba7601383610dfa565b91507f4c616e6420646f6573206e6f74206578697374000000000000000000000000006000830152602082019050919050565b610be381610e49565b82525050565b60006040820190508181036000830152610c038185610abb565b9050610c126020830184610a9d565b9392505050565b60006060820190508181036000830152610c338186610abb565b90508181036020830152610c478185610abb565b9050610c566040830184610bda565b949350505050565b60006020820190508181036000830152610c7781610af4565b9050919050565b60006020820190508181036000830152610c9781610b34565b9050919050565b60006020820190508181036000830152610cb781610b9a565b9050919050565b600060a082019050610cd36000830188610bda565b8181036020830152610ce58187610abb565b9050610cf46040830186610a9d565b8181036060830152610d068185610abb565b9050610d156080830184610bda565b9695505050505050565b600060c082019050610d346000830189610bda565b8181036020830152610d468188610abb565b9050610d556040830187610a9d565b8181036060830152610d678186610abb565b9050610d766080830185610bda565b610d8360a0830184610aac565b979650505050505050565b6000604051905081810181811067ffffffffffffffff82111715610db557610db4610ef6565b5b8060405250919050565b600067ffffffffffffffff821115610dda57610dd9610ef6565b5b601f19601f8301169050602081019050919050565b600081519050919050565b600082825260208201905092915050565b6000610e1682610e29565b9050919050565b60008115159050919050565b600073ffffffffffffffffffffffffffffffffffffffff82169050919050565b6000819050919050565b82818337600083830152505050565b60005b83811015610e80578082015181840152602081019050610e65565b83811115610e8f576000848401525b50505050565b60006002820490506001821680610ead57607f821691505b60208210811415610ec157610ec0610ec7565b5b50919050565b7f4e487b7100000000000000000000000000000000000000000000000000000000600052602260045260246000fd5b7f4e487b7100000000000000000000000000000000000000000000000000000000600052604160045260246000fd5b6000601f19601f8301169050919050565b610f3f81610e0b565b8114610f4a57600080fd5b50565b610f5681610e49565b8114610f6157600080fd5b5056fea2646970667358221220fac85cd9b6d706aa08a9547cb312612858e0a890750a0d09c05f2ac2a48e769264736f6c63430008000033",
  "immutableReferences": {},
  "source": "// SPDX-License-Identifier: MIT\npragma solidity ^0.8.0;\n\ncontract LandRegistry {\n    // Struct to store land details\n    struct Land {\n        uint256 landId;\n        string ownerName;\n        address ownerAddress;\n        string location;\n        uint256 price;\n        bool exists;\n    }\n\n    // Mapping to store land details by land ID\n    mapping(uint256 => Land) public lands;\n\n    // Event for land registration\n    event LandRegistered(uint256 indexed landId, string ownerName, string location, uint256 price);\n\n    // Event for land ownership transfer\n    event OwnershipTransferred(uint256 indexed landId, string newOwnerName, address newOwnerAddress);\n\n    // Register a new land\n    function registerLand(\n        uint256 _landId,\n        string memory _ownerName,\n        string memory _location,\n        uint256 _price\n    ) public {\n        // Ensure the land doesn't already exist\n        require(!lands[_landId].exists, \"Land already registered\");\n\n        // Register the land\n        lands[_landId] = Land({\n            landId: _landId,\n            ownerName: _ownerName,\n            ownerAddress: msg.sender,\n            location: _location,\n            price: _price,\n            exists: true\n        });\n\n        // Emit an event for land registration\n        emit LandRegistered(_landId, _ownerName, _location, _price);\n    }\n\n    // Transfer land ownership\n    function transferOwnership(\n        uint256 _landId,\n        string memory _newOwnerName,\n        address _newOwnerAddress\n    ) public {\n        // Ensure the land exists\n        require(lands[_landId].exists, \"Land does not exist\");\n\n        // Ensure the caller is the current owner\n        require(lands[_landId].ownerAddress == msg.sender, \"Only the owner can transfer ownership\");\n\n        // Update the land's owner details\n        lands[_landId].ownerName = _newOwnerName;\n        lands[_landId].ownerAddress = _newOwnerAddress;\n\n        // Emit an event for ownership transfer\n        emit OwnershipTransferred(_landId, _newOwnerName, _newOwnerAddress);\n    }\n\n    // Get land details by land ID\n    function getLandDetails(uint256 _landId) public view returns (\n        uint256 landId,\n        string memory ownerName,\n        address ownerAddress,\n        string memory location,\n        uint256 price\n    ) {\n        // Ensure the land exists\n        require(lands[_landId].exists, \"Land does not exist\");\n\n        // Return land details\n        Land memory land = lands[_landId];\n        return (land.landId, land.ownerName, land.ownerAddress, land.location, land.price);\n    }\n}",
  "sourcePath": "C:\\Users\\skspa\\Desktop\\Dapp2\\contracts\\LandRegistry.sol",
  "compiler": {
    "name": "solc",
    "version": "0.8.0+commit.c7dfd78e.Emscripten.clang"
  },
  "schemaVersion": "3.4.16",
  "updatedAt": "2025-02-03T12:36:02.926Z",
  "networkType": "ethereum",
  "devdoc": {
    "kind": "dev",
    "methods": {},
    "version": 1
  },
  "userdoc": {
    "kind": "user",
    "methods": {},
    "version": 1
  }
}